:020000040800F2
:10000000E0020020DD01000843170008FF1500088A
:100010004117000805080008D11E00080000000074
:10002000000000000000000000000000671700084A
:100030000708000800000000651700082D190008D7
:10004000F7010008F7010008F7010008F7010008B0
:10005000F7010008F7010008F7010008F7010008A0
:10006000F7010008F7010008F7010008F701000890
:10007000F7010008F7010008F7010008F701000880
:10008000F7010008F7010008F70100080000000070
:10009000000000000000000000000000F701000860
:1000A000F7010008F7010008F7010008F701000850
:1000B000000000000000000000000000F701000840
:1000C000F7010008F7010008F7010008F701000830
:1000D000F7010008F7010008F70100080000000020
:1000E000F7010008F7010008000000000000000010
:1000F000000000000000000000000000F701000800
:100100000000000000000000F701000800000000EF
:100110000000000000000000F701000800000000DF
:10012000F7010008F7010008F7010008F7010008CF
:10013000F7010008000000000000000000000000BF
:1001400000000000000000000000000000000000AF
:10015000F7010008F7010008F7010008F70100089F
:10016000000000000000000000000000000000008F
:10017000000000000000000000000000000000007F
:10018000F7010008F701000800000000000000006F
:1001900000000000F701000800000000000000005F
:1001A000000000000000000000000000000000004F
:1001B000000000000000000000000000F70100083F
:1001C000F7010008F7010008DFF80CD000F0F6FA9C
:1001D0000048004735280008E00200200648804714
:1001E00006480047FEE7FEE7FEE7FEE7FEE7FEE71C
:1001F000FEE7FEE7FEE7FEE7B5190008C9010008C3
:100200002DE9F05F0546002092469B46884606464B
:10021000814640241BE0284641464746224600F0DE
:1002200089F953465A46C01A914110D311461846CF
:10023000224600F070F92D1A67EB01084F4622465E
:100240000120002100F067F917EB00094E41201E44
:10025000A4F10104DFDC484631462A464346BDE8A6
:10026000F09F40EA01039B0703D009E008C9121F71
:1002700008C0042AFAD203E011F8013B00F8013B60
:10028000521EF9D27047D2B201E000F8012B491E8C
:10029000FBD270470022F6E710B513460A46044623
:1002A0001946FFF7F0FF204610BD421E12F8013F2D
:1002B000002BFBD111F8013B02F8013B002BF9D1D7
:1002C0007047421C10F8011B0029FBD1801A7047AF
:1002D0002DE9FE4F81EA030404F0004421F00041BF
:1002E00000944FF0000B23F0004350EA01045ED06D
:1002F00052EA03045BD0C3F30A54C1F30A552C44F9
:10030000A4F2F3340194A0FB0254C1F3130141F4AD
:100310008011C3F3130343F4801301FB024400FB79
:10032000034E840A970A44EA815447EA8357A4FBA0
:10033000076802958D0A05FB07854FEA932C04FB9D
:100340000C542705029D4FEA065847EA1637B5EBCD
:1003500008056EEB070C870E920E47EA811742EAFA
:100360008312A7FB0201B6EB0B0164EB00042B0D1B
:1003700043EA0C335E1844EB1C50DA465146E7FB67
:100380000201C5F313044FEA0B3343EA14534FEA57
:100390000432019C43EA0603A4F10C040294009C7D
:1003A000CDE900B400F0E5F803B0BDE8F08F00201F
:1003B0000146F9E72DE9F04D81EA030404F0004B12
:1003C00021F0004514464FF0000A23F0004150EAA6
:1003D000050220D054EA01021DD0C5F30A57024697
:1003E000C5F31303C1F31300C1F30A5640F480159B
:1003F00043F48013A7EB0608101BD64608F2FD381D
:1004000073EB050002D308F1010801E092185B418B
:10041000B8F1000F03DA00200146BDE8F08D00209E
:100420004FF48011064684460EE0171B73EB050758
:1004300005D3121B63EB050306434CEA010C490884
:100440004FEA300092185B4150EA0107EDD152EAC1
:10045000030012D082EA040083EA0501084305D0B4
:10046000101BAB4106D20122002306E000224FF010
:10047000004302E06FF0010253101AEB06004CEB50
:10048000085110EB0A0041EB0B01BDE8F04D00F004
:1004900061B8C1F30A5210B5C1F3130140F2FF3342
:1004A00041F480119A4201DA002010BD40F233433A
:1004B0009A42A2F2334203DC524200F03BF810BDF4
:1004C000904010BD00F0004230F000400AD0C10D55
:1004D00001F56071C0F3160042EA0151C2084007FD
:1004E0001143704700200146704730B50B46014666
:1004F00000202022012409E021FA02F59D4205D3C3
:1005000003FA02F5491B04FA02F52844151EA2F16C
:100510000102F1DC30BD202A04DB203A00FA02F1AE
:10052000002070479140C2F1200320FA03F31943E1
:1005300090407047202A04DB203A21FA02F0002183
:10054000704721FA02F3D040C2F1200291400843E3
:100550001946704710B5141E73F1000408DA401CE8
:1005600041F1000192185B411A4301D120F00100D2
:1005700010BD2DE9F04D92469B4611B1B1FA81F2C2
:1005800002E0B0FA80F220329046FFF7C4FF044642
:100590000F4640EA0A0041EA0B0153465A46084317
:1005A00013D0114653EA010019D0C8F14002504659
:1005B000FFF7C0FF05460E46504659464246FFF734
:1005C000AAFF084305D0012004E020463946BDE8D3
:1005D000F08D0020054346EAE0762C4337430A9825
:1005E0006305E40AA0EB08000022FD0A44EA475430
:1005F0000A3002D500200146E9E7010510196941DA
:10060000DDE9084500196941BDE8F04DA2E72DE993
:10061000FE4F804681EA0300C00F0C46009021F097
:10062000004123F00045B8EB0200A94105D2404645
:10063000214690461C460B46024623F000401043DC
:1006400047D0270DC7F30A00C3F30A510290401A9E
:10065000019040286BDAC3F3130040F4801B00982C
:10066000924620B10023D2EB030A63EB0B0B0198F7
:100670005946C0F140025046FFF74DFF06460D4671
:1006800050465946019A00F0ABF810EB0800614162
:10069000002487EA115284EAE7731A4340D0009A93
:1006A00062B3019A012A4FEA075215DC001B61EB85
:1006B00002014FF0004202EA0752CDE90042001C5D
:1006C00041F5801132462B46FFF753FF03B0BDE8DA
:1006D000F08F40462146F9E7001B61EB0201001C48
:1006E00041F5801300185B412018A2F5001747EB75
:1006F000030140EAD570B6196D4111E06D084FEA6B
:10070000360645EAC0754FEA0752001B61EB02014D
:10071000001C41F5801149084FEA30000019514191
:1007200032462B4603B0BDE8F04FFFF713BF0098E9
:10073000012240000023D0EB020263EBE07300983B
:1007400021464FEAE074B8EB000061EB0401E9E7F1
:1007500083F000435BE781F0004158E7C1F30A52A0
:10076000C1F3130140F2FF3341F480119A4202DADF
:1007700000200146704740F233439A42A2F23342CE
:1007800002DC5242FFF7D6BEFFF7C5BE30B5041EED
:1007900071F1000404DB4FF00044404264EB0101BE
:1007A000141E73F1000405DB1C464FF00043524257
:1007B00063EB0403994208BF904230BD064C074DDD
:1007C00006E0E06840F0010394E807009847103421
:1007D000AC42F6D3FFF7FCFCC0290008E029000872
:1007E000202A06DBCB17203A41FA02F043EAE073F5
:1007F00006E041FA02F3D040C2F1200291400843E2
:1008000019467047FEE7704710B5044601224021A3
:10081000054800F06DF901224021044800F068F914
:10082000012084F8310010BD0004024000000240A5
:1008300070B54379012B1AD001264671022303714A
:1008400005682C6840F6FE7393409C43D1E9003163
:100850000B43934023432B6001680B68C0249440F2
:10086000A3430B60067100214171084670BD022050
:1008700070BD70B5040003D02079002510B105E0EB
:10088000012070BD6571204600F008F8022020713B
:10089000256101202071002070BD000010B586B0D8
:1008A000044614216846FFF7F5FC11492068884288
:1008B0001CD110480021026842F00052026000681A
:1008C00000F0005005900B481038026842F0010219
:1008D0000260006800F001000590202000900320D5
:1008E000CDE901016946044800F04CF806B010BD9E
:1008F00000740040403802400000024018B504680F
:1009000000940068104421B114300090036000206E
:1009100018BD0830F9E730B54279012A16D0012216
:1009200042710223037103681D6802FA01F4254332
:100930001D60002901680B680AD00C6803F480234D
:1009400004F46014B3F5802F0FD015E0022030BD01
:100950000C6803F0040304F03804042B0CD1382C89
:100960000AD14B6843F0010305E0B4F5601F03D1E1
:100970004B6843F002034B6002710021417108464D
:1009800030BD00002DE9F84FDFF84CB100224FF0E8
:1009900001084FF0030A4FF00F090BF1040E00BFDE
:1009A0000B6808FA02F42340A3427DD14D68022D62
:1009B00001D0122D0ED1D50800EB850CDCF82050AB
:1009C0005607F70E09FA07F6B5430E69BE402E43E7
:1009D000CCF82060066855000F790AFA05FC07F08C
:1009E000030726EA0C06AF40374307604E68012E26
:1009F00005D0022E03D0112E01D0122E0ED1876801
:100A0000CE6827EA0C07AE403E4386604668A643A0
:100A10000C79C4F30014944034434460C4688E6875
:100A200024EA0C04AE402643C6604C68E4004DD571
:100A30002A4C256845F480452560246822F003058A
:100A400004F480440094264C2E19D6F808489507E3
:100A50002F0F09FA07F5AC43224DA84201D100251A
:100A60000AE0214DA84201D1012505E01F4DA84211
:100A700001D1022500E00725BD402543C6F80858EE
:100A8000DBF800405D464E689C43F60300D51C43EE
:100A90002C60DEF8004075464E689C43B60300D5D6
:100AA0001C432C600C4D00E010E008352C684E68AB
:100AB0009C43F60200D51C432C60074D0C352C6876
:100AC0004E689C43B60200D51C432C60521C102A71
:100AD000FFF466AFBDE8F88F003C014044380240A7
:100AE00000300140000002400004024000080240C3
:100AF0000AB1816170470904FBE700000148806882
:100B0000704700000000002002488168027811440C
:100B100081607047000000200B4810B5016841F467
:100B200000710160016841F480610160016841F475
:100B300080710160032000F061F8002000F006F8E9
:100B400000F024F8002010BD003C024070B50D4DAF
:100B500004464FF47A712878B1FBF0F00A4909682D
:100B6000B1FBF0F000F0D8FA48B9102C07D20022FF
:100B70002146501E00F022F800206C6070BD01205C
:100B800070BD0000000000200C0000200A4808B5DD
:100B9000016841F480410160006800F480400090E9
:100BA0000548001F016841F080510160006800F0B5
:100BB0008050009008BD000044380240F0B40E4B55
:100BC0001B680C46C3F30223C3F10705042D00D9AB
:100BD0000425191D072901D2002300E0DB1E012690
:100BE00006FA05F1491E214099409E40761E1640A6
:100BF0003143F0BC00F0A6BD0CED00E0064900F06A
:100C0000070208684FF6FF03184040EA0220034A33
:100C100010430860704700000CED00E00000FA058A
:100C20002DE9F0470E46050065D0DFF81481D8F8AD
:100C30000000F7B200F00F00B04207D288F8007051
:100C4000D8F8000000F00F00B04254D128683D4CA5
:100C5000810712D5400703D5206840F4E05020609A
:100C60002878000703D5206840F4604020602068A1
:100C7000A96820F0F000084320602878C0072DD034
:100C8000304968680839012812D0022813D0032897
:100C900011D00968890700292DDA216821F00301A4
:100CA00001432160FFF72AFF814641F2883A0EE0B6
:100CB00009688903EFE709688901ECE7FFF71EFF80
:100CC000A0EB0901514502D90320BDE8F087206857
:100CD000696800F00C00B0EB810FEFD1D8F800107C
:100CE000404601F00F01B14207D90770006800F0DB
:100CF0000F00B04201D00120E7E72878400705D572
:100D00002068E96820F4E050084320602878000754
:100D100006D52068296920F4604040EAC1002060BF
:100D200000F036F82168084AC1F30311515CC8404D
:100D3000064908600020FFF709FF0020C5E7000012
:100D4000003C024008380240A82900080C0000209E
:100D50000448054900680968044AC1F38221515CCE
:100D6000C84070470C00002008380240B82900082D
:100D70000448054900680968044AC1F34231515CDE
:100D8000C84070470C00002008380240B82900080D
:100D9000154810B5006810F00C02144813D014491F
:100DA000042A0FD0082A0ED10F4C241F2268236872
:100DB00002F03F025B0207D52068C0F38810A0FB59
:100DC000010106E0084610BD2168C1F38811A1FBAE
:100DD00000010023FFF714FA2168C1F30141491C07
:100DE0004900B0FBF1F010BD083802400024F400C7
:100DF00040787D012DE9F84F05460078DFF800B313
:100E0000C04CC0074AD0DBF800105846C1F381013E
:100E1000012908D00068C0F3810002280AD1201DF2
:100E20000068400206D52068800337D5686800282E
:100E300072D033E06868B0F5803F10D0B0F5A02FD5
:100E4000206810D020F480302060206820F48020BA
:100E500020606868A8B1FFF751FE06460DE02068E3
:100E600040F48030F4E740F480202060F7E700BFD2
:100E7000FFF744FE801B64286FD820688003F7D5F5
:100E80000CE0FFF73BFE064605E000BFFFF736FE2D
:100E9000801B6428F0D820688003F7D42878DFF816
:100EA000688280074FF0000940D5DBF800105846F3
:100EB00011F00C0F09D00068C0F3810002280BD19B
:100EC0008F48001F0068400206D42068800715D5AF
:100ED000E868012820D111E0E868B8B10120C8F81D
:100EE0000000FFF70BFE064605E000BFFFF706FE19
:100EF000801B0228C0D820688007F7D520682969A0
:100F000020F0F80040EAC10020600FE0C8F800902F
:100F1000FFF7F4FD064606E0EFE000BFFFF7EEFD49
:100F2000801B022819D820688007F7D4287800078A
:100F300022D5734E754869696C3679B1012101601B
:100F4000FFF7DCFD074604E0FFF7D8FDC01B0228D1
:100F500003D830688007F7D50EE089E0C0F800902C
:100F6000FFF7CCFD074604E0FFF7C8FDC01B0228D1
:100F70007ED830688007F7D42878400768D5DFF836
:100F800080A100270AF1380ADAF80000C0000BD46B
:100F9000DAF8001041F08051CAF80010DAF80000C9
:100FA000012700F080500090594E3068C00510D4E1
:100FB000306840F480703060FFF7A0FD009005E0DD
:100FC000FFF79CFD0099401A022851D83068C005EF
:100FD000F6D54B4EA868683601280FD00528306832
:100FE00010D020F001003060306820F00400306044
:100FF000A868B8B1FFF782FD00900FE0306840F0BC
:101000000100F4E740F004003060F7E7FFF776FDF9
:101010000099411A41F28830814266D830688007D1
:10102000F4D50EE0FFF76AFD009007E0FFF766FDDC
:101030000099411A41F28830814256D830688007C1
:10104000F4D42FB1DAF8001021F08051CAF8001062
:10105000A869D0B3DBF80010C1F3810102294CD09C
:101060000228484607D0C8F86000FFF747FD00E0B7
:101070003BE005463CE04746C8F86000FFF73EFD10
:10108000064604E0FFF73AFD801B02282DD82068B1
:101090008001F7D4F5E907010843E9681D4A4908CA
:1010A00002EB0141AA6841EA82110843297C40EA27
:1010B0000160297D40EA01711148001F0160012093
:1010C0003866FFF71BFD054605E014E0FFF716FD47
:1010D000401B022809D820688001F7D50BE000BF2B
:1010E000FFF70CFD401B022802D90320BDE8F88F52
:1010F00020688001F4D40020F8E70120F6E7000022
:10110000083802400038024000004742800E474243
:10111000007000400000FFFF10B5401EB0F1807F5E
:1011200001D3012010BD4FF0E02460610F21601752
:1011300000F008FB0020A06107202061002010BD06
:1011400030B590F83820012A20D0012280F83820CC
:10115000022380F8393003685C6824F070045C6016
:1011600003685C680D682C435C6003689C6824F02D
:1011700080049C6003689C6849680C439C6080F80C
:101180003920002180F83810084630BD022030BDDB
:101190002DE9F0410D46040003D094F8390018B150
:1011A00008E00120BDE8F081002084F838002046E6
:1011B00000F03AF8022084F839002068816821F0B4
:1011C00007018160211D206800F01EFC22689068E4
:1011D0009169166A2B68AF69034340F2033081437B
:1011E00041EA0721A868EF6908434FF6FC418843AC
:1011F000E96840EA0720014328692F6A000140EAB4
:101200000730084369686D6926F0AA0646EA0515A5
:10121000294393602268906120680162012084F86C
:1012200039000020BEE7000010B586B00446142146
:101230006846FFF72FF813492068884220D11248EA
:101240000021026842F001020260006800F0010023
:1012500005900D481438026842F0010202600068EF
:1012600000F0010005904FF44070009002200190C2
:101270000120CDE90201049069460448FFF782FB92
:1012800006B010BD0000014044380240000002409A
:1012900010B50446006891B1042904D00122002150
:1012A00000F0E0FB206801225FF0040100F0DAFBAF
:1012B0002068016841F001010160002010BD012299
:1012C0000021F3E710B586B0044614216846FEF706
:1012D000E1FF0E492068884215D10D4800210268BF
:1012E00042F004020260006800F004000590102043
:1012F00000900220CDE901010320CDE903106946E9
:101300000448FFF73FFB06B010BD0000004001405D
:10131000303802400008024070B5044690F83800AA
:101320000D4601280DD0012684F83860022084F88B
:10133000390042B1042A18D0082A2AD00C2A4DD1EB
:1013400039E0022070BD206800F098FB20688169B8
:1013500041F0080181612068816921F00401816107
:10136000206881692A69114311E0206800F0AEFB12
:101370002068816941F4006181612068816921F4FC
:1013800080618161206881692A6941EA0221816165
:1013900024E0206800F0C6FB2068C16941F0080124
:1013A000C1612068C16921F00401C1612068C1697F
:1013B0002A69114311E0206800F0E0FB2068C16950
:1013C00041F40061C1612068C16921F48061C1619B
:1013D0002068C1692A6941EA0221C16184F8396043
:1013E000002084F8380070BD10B5040003D094F8D4
:1013F000390010B107E0012010BD002084F838004A
:10140000204600F00DF8022084F83900211D2068E4
:1014100000F0FAFA012084F83900002010BD000025
:1014200008B500680649884208D10648016841F4B9
:1014300080310160006800F48030009008BD000039
:10144000004001404438024010B5044600680122C3
:1014500000F008FB07492068884203D1416C41F441
:10146000004141642068016841F0010101600020F1
:1014700010BD00000000014070B5040004D094F8D5
:101480003900002510B106E0012070BD84F8385005
:10149000204600F023F8242084F839002068C16831
:1014A00021F40051C160204600F08AFB20680169E8
:1014B00021F4904101612068416921F02A014161D4
:1014C0002068C16841F40051C160E563202084F8C0
:1014D000390084F83A00002070BD000010B586B0D5
:1014E000044614216846FEF7D5FE13492068884259
:1014F00020D11248016841F400310160006800F415
:10150000003005900D481038016841F0010101607C
:101510000068694600F0010005900C200090022050
:1015200001900120029003200390072004900448BA
:10153000FFF728FA06B010BD0044004040380240D2
:10154000000002402DE9F843044690F839001F4698
:1015500016460D46202850D1A5B19EB194F838000A
:1015600001284AD0012084F838004FF00008C4F860
:101570003C80212084F83900FFF7C0FAA684814618
:10158000E68426E00120BDE8F883E08C401EE0847C
:10159000A0684B46B0F5805F4FF000024FF080012D
:1015A0002046009703D000F061FCE8B90DE000F0A0
:1015B0005DFCC8B928882168C0F30800486020692C
:1015C00008B16D1C05E0AD1C03E0216815F8010BA6
:1015D0004860E08C0028D8D14B46002240212046AC
:1015E000009700F043FC08B10320CCE7202084F8EA
:1015F000390084F838800020C5E70220C3E7FEE701
:101600002DE9F04186B014216846FEF743FE1E48DE
:101610000024016841F001010160016801F001014D
:101620000591016841F004010160016801F00401C5
:101630000591016841F0020101600068134F00F05C
:1016400002000590002240213846FFF751FADFF8EA
:101650004080002240214046FFF74AFA40250126FB
:101660000095CDE90164694638460394FFF78AF98D
:101670000095CDE90164694640460394FFF782F97D
:1016800006B0BDE8F08100003038024000000240A2
:101690000004024010B58CB024216846FEF7FAFD24
:1016A00000241248099410490A94C0E900144FF626
:1016B000FF71C0E90241046144610120CDE90004E9
:1016C000CDE902040494CDE9054007946946074832
:1016D0000894FFF75DFD099409A904480A94FFF7EF
:1016E0002FFD0CB010BD00000000014024000020C0
:1016F00010B588B01C216846FEF7CCFD0F480E4996
:10170000002401604FF4FA71C0E901144900C0E9F6
:101710000314FFF769FE602000908020CDE90104EA
:101720000022694605480494FFF7F6FD0348FFF7D9
:10173000C9FD08B010BD000000400140600000205D
:10174000FEE770470907090E002806DA00F00F00CF
:1017500000F1E02080F8141D704700F1E02080F8CF
:10176000001470477047704700B585B003460AA261
:101770001421684600F0AEFB08A16846FEF795FD0F
:101780006846FEF79EFD82B24FF47A7369460448BC
:10179000FFF7D8FE05B000BD256400000D0A00006B
:1017A0009C0000202DE9F0410446274ED4E90901B0
:1017B0007542471A01F0E6F80146206A234A081AE2
:1017C000904200D94042216207FB00F100EE101A5E
:1017D000D4ED070AB8EE400A30EE800A84ED070A1D
:1017E000A16994ED051AA7EB010100EE901AF8EE3D
:1017F000E00A61EE201A00EE900AF8EE600A81EE2F
:10180000A01AD4ED040AD4ED031A60EE800A00EEAB
:10181000107AB8EEC00A41EE800A31EE200ABDEE21
:10182000C00A10EE100A00B2B04201DA304602E0FF
:10183000A84200DD284600F5FA7000B2C0F57A70C3
:10184000E085A761BDE8F0810CFEFFFF404B4C0036
:1018500080ED030A9FED050AC0EE801A21EE000A12
:10186000C0ED041A80ED050A704700000050C34720
:1018700010B5828D42F210738A1A12B2134444F6E4
:101880002064A34203D94FF6FF739A1A12B2436A37
:101890001A444262818510BD10B50446642900D9FE
:1018A000642194ED000A9FED131AD4ED021AC0EEE4
:1018B000010A00EE101A94ED011AB8EE400A20EE6B
:1018C000800AC1EE210A20EE800A10EE100AFEF70F
:1018D000F9FD9FED091B53EC112BFEF76BFD9FEDFE
:1018E000081B53EC112BFEF7F3FCFEF7D2FD84F836
:1018F000300010BD0000C842000000000000084099
:101900000000000000E06F4008980822C3B20021E8
:101910000148FEF7F3BF00001000002002490798BD
:101920000968000C4863704760000020FFF7ECB8BE
:1019300030B593B034216846FEF7ACFC14210DA8F5
:10194000FEF7A8FC19480025016841F080510160AC
:10195000006800F0805012901548016841F4404141
:1019600001600068022400F44040129001200390BE
:1019700010200490009406940820CDE907506420BC
:10198000CDE909040420CDE90B046846FFF732FADB
:101990000DA90F2081E83100E002CDE910050321F7
:1019A0000DA8FFF73DF913B030BD000040380240EC
:1019B000007000401048016841F4700101600F4858
:1019C000016841F0010101600C4A002108321160F8
:1019D00002680B4B1A400260031D0A4A1A60026833
:1019E00022F48022026005480C300160024958064A
:1019F000803908607047000088ED00E00038024040
:101A0000FFFFF6FE1030002430B50268114B124C77
:101A1000984201D0A04203D122F070054A682A43BF
:101A2000984207D0A04205D00C4CA04202D00C4CEA
:101A3000A04203D122F44074CA68224302608A683B
:101A4000C2620A688262984201D109690163012178
:101A5000416130BD00000140000C004000400140E9
:101A60000048014010B50123046A8B409C43046286
:101A7000036A8A401343036210BD000030B5026A56
:101A800022F001020262026A4368846924F073054D
:101A90000C682C4322F002058A682A430A4DA842AA
:101AA0000BD122F00805CA6823F440732A434D691C
:101AB00022F004021D438B692B4343608461496813
:101AC0004163026230BD00000000014030B5026A8F
:101AD00022F010020262026A436884690D6824F4ED
:101AE000E64444EA05248D6822F0200242EA051209
:101AF0000B4DA8420ED1CD6822F0800242EA0512B9
:101B00004D6923F4406343EA85038D6922F0400266
:101B100043EA85034360846149688163026230BDA2
:101B20000000014030B5026A22F480720262036A4A
:101B30004268C46923F4007324F073050C682C43D5
:101B40008D6843EA05230C4DA8420ED1CD6823F4DD
:101B5000006343EA05234D6922F4405242EA05122C
:101B60008D6923F4806342EA05124260C4614968CA
:101B7000C163036230BD00000000014030B5026A5D
:101B800022F480520262046A4268C3690D6823F439
:101B9000E64343EA05238D6824F4005444EA0534FF
:101BA000064DA84204D14D6922F4804242EA8512D2
:101BB0004260C36149680164046230BD00000140B5
:101BC0002DE9F04104460068016921F44052E168C2
:101BD000114301612168C86849F20C62904323698E
:101BE000A268E5691A4363692B431A430243CA603A
:101BF0002168486920F44072A06910434861E16996
:101C00006425B1F5004F9748974A21684FF0320894
:101C10003FD0914201D081427CD1FFF7A9F800EB7F
:101C2000C00101EB001061688900B0FBF1F6FFF71D
:101C30009FF800EBC00101EB001061688900B0FB68
:101C4000F1F0B0FBF5F06FF01801484306EB8001AE
:101C500008EB0110B0FBF5F000F0F006FFF788F894
:101C600000EBC00101EB001061688900B0FBF1F0EE
:101C7000B0FBF5F006EB0016FFF77AF800EBC001B9
:101C800001EB001061688900B0FBF1F7FFF770F815
:101C9000D2E0914201D081423DD1FFF769F800EBDB
:101CA000C00101EB001061684900B0FBF1F0B0FB2E
:101CB000F5F00601FFF75CF800EBC00101EB001046
:101CC00061684900B0FBF1F7FFF752F800EBC00183
:101CD00001EB001061684900B0FBF1F0B0FBF5F0DA
:101CE0006FF01801484307EB800108EBC100B0FB1F
:101CF000F5F000F0F80006EB4006FFF739F800EBCE
:101D0000C00101EB001061684900B0FBF1F7FFF77B
:101D10002FF83CE055E0FFF71BF800EBC00101EBAA
:101D2000001061684900B0FBF1F0B0FBF5F006016E
:101D3000FFF70EF800EBC00101EB001061684900ED
:101D4000B0FBF1F7FFF704F800EBC00101EB001066
:101D500061684900B0FBF1F0B0FBF5F06FF01801DD
:101D6000484307EB800108EBC100B0FBF5F000F041
:101D7000F80006EB4006FEF7EBFF00EBC00101EBBD
:101D8000001061684900B0FBF1F7FEF7E1FF00EBDE
:101D9000C00101EB001061684900B0FBF1F0B0FB3D
:101DA000F5F06FF01801484307EB800108EBC10024
:101DB000B0FBF5F000F00700216830448860BDE812
:101DC000F081FEF7C5FF00EBC00101EB0010616878
:101DD0008900B0FBF1F6FEF7BBFF00EBC00101EBA1
:101DE000001061688900B0FBF1F0B0FBF5F06FF016
:101DF0001801484306EB800108EB0110B0FBF5F039
:101E000000F0F006FEF7A4FF00EBC00101EB0010AC
:101E100061688900B0FBF1F0B0FBF5F006EB00164D
:101E2000FEF796FF00EBC00101EB0010616889002E
:101E3000B0FBF1F7FEF78CFF00EBC00101EB0010E7
:101E400061688900B0FBF1F0B0FBF5F06FF01801AC
:101E5000484307EB800108EB0110B0FBF5F000F000
:101E60000F00A9E700140140001001402DE9F041E6
:101E7000984617460E460446069D1DE0681C1BD07A
:101E80002DB1FEF73BFEA0EB0800A84214D9206854
:101E9000C16821F4D071C1602068416921F001015D
:101EA0004161202084F8390084F83A00002084F849
:101EB00038000320BDE8F0812068006836EA0000A1
:101EC00004D00020B842D9D00020F3E70120F9E780
:101ED000FEE700000FB41CB50246002007AC002945
:101EE0000BD0491ECDE90021054B6A4621460698D4
:101EF00000F0DAF8009A002111701CBC5DF814FBA8
:101F0000D727000802E008C8121F08C1002AFAD12A
:101F100070477047002001E001C1121F002AFBD169
:101F2000704700002DE9FF5F82B00021DDE9043039
:101F3000020DDDF840B0034318D044F61050A2F271
:101F4000FF3242431514119801281FD0A5EB0B0056
:101F5000401C5FEA000A4FF000064E4FDFF8389150
:101F6000B046504615D5CAF1000413E0119801247B
:101F70004AA3012801D16FEA0B010298119AC0E926
:101F80000031C0E9024206B0BDE8F09FCBF100008D
:101F9000DFE704460021404A491842EB0450CDE9EE
:101FA000001012E0E00707D032463B464046494663
:101FB000FEF78EF98046894632463B461046194662
:101FC000FEF786F906460F466410002CEAD1DDE9DB
:101FD0000401DDE90023BAF1000F06DAFEF778F913
:101FE00042464B46FEF774F905E0FEF7E3F9424638
:101FF0004B46FEF7DFF904460E460022284BFEF75B
:10200000C5FB03D84FF0FF30014607E00022254B07
:1020100020463146FEF7FBFAFEF7A0FB102409E04C
:10202000002C0ADB0A220023FEF7EAF8039B303279
:102030001A55641E50EA0102F2D1641C039AC4F1DD
:1020400011031444119A012A03D0012208430DD12F
:102050000AE0084304D000204FF0110B119072E702
:10206000A3EB0B056D1E0DE05B4504DD4FF0000298
:1020700005F1010504E003DA4FF00002A5F10105C6
:10208000002AECD002981199C0E90231C0E900455C
:1020900079E70000000014400000F03F300000002D
:1020A0000000F0430000E03F2DE9FF4F95B09B4654
:1020B0008946064600250FE2252877D100242746C9
:1020C000F84A0121059400E0044316F8013F203B43
:1020D00001FA03F01042F7D130782A2811D06FF0BE
:1020E0002F033078A0F13002092A16D8059A44F05F
:1020F000020402EB820203EB42021044761C0590BC
:10210000EFE759F8042B0592002A03DA504244F411
:102110000054059044F00204761C30782E2816D125
:1021200016F8010F44F004042A280DD06FF02F0296
:102130003078A0F13003092B09D807EB870302EBB5
:102140004303C718761CF3E759F8047B761C3078F4
:102150006C280FD006DC4C2817D068280DD06A28D0
:1021600014D104E0742810D07A280FD10DE044F483
:1021700000140AE044F4801401E044F4401472783E
:10218000824202D104F58014761C761C30786628D1
:102190000BD013DC582877D009DC002875D04528EF
:1021A000F6D04628F4D047281AD19DE118E06328DC
:1021B00035D0642879D0652812D195E1702873D084
:1021C00008DC6728F1D069286FD06E280DD06F2801
:1021D00006D1B5E073282CD0752875D0782874D036
:1021E0005A46179990476D1C75E1C4F302500228B6
:1021F00009D003280DD0D9F8001004280DD00D60A7
:1022000009F1040967E1D9F80010EA17C1E90052A1
:10221000F6E7D9F800100D80F2E70D70F0E719F835
:10222000041B8DF8001000208DF80100EA46012003
:1022300003E059F804AB4FF0FF3061074FF00001A5
:1022400002D40DE008F101018846B9420FDA804559
:10225000F8DB1AF808100029F4D108E008F10101B0
:1022600088468142FADB1AF808100029F6D1059851
:102270005B46A0EB080721463846179A00F094FA0F
:10228000284400EB080507E04DE029E10DE01AF8CD
:10229000010B5A4617999047B8F10108F7D25B46EF
:1022A00021463846179A13E142E00A220092C4F30D
:1022B00002524FF0000A022A08D059F804CB032A30
:1022C0004FEAEC710AD00DE029E02AE009F107019C
:1022D00021F00702F2E802C1914609E00FFA8CFCF6
:1022E0004FEAEC71042A03D14FFA8CFC4FEAEC71EF
:1022F000002907DA0A460021DCF1000C61EB02013B
:102300002D2202E0220504D52B228DF80420012283
:1023100003E0E20701D02022F7E7904659E00A21C6
:1023200002E010220DE010214FF0000A00910BE0B6
:1023300010224FF0000A44F004040827009203E042
:1023400008224FF0000A0092C4F30252022A05D07C
:1023500059F804CB0021032A08D009E009F107014C
:1023600021F00702F2E802C1914605E01FFA8CFC59
:10237000042A01D10CF0FF0C4FF00008220728D5E9
:10238000702806D0009B83F0100353EA0A0305D09F
:102390000EE040228DF80420012208E05CEA0102F0
:1023A00006D030228DF804208DF8050002229046D8
:1023B000009B83F0080353EA0A030AD15CEA010296
:1023C00001D1620705D530228DF804204FF00108B5
:1023D0007F1E582804D034A003900EA802900DE070
:1023E00036A0F9E753466046009AFDF709FF844698
:1023F0000398825C0298401E029002705CEA010021
:10240000F0D1029806A9081A00F1200A600702D547
:1024100024F4803400E00127574502DDA7EB0A00D1
:1024200000E0002000EB0A01009005984144401AAA
:102430000590E00306D45B462146179A059800F004
:10244000B3F90544002706E001A85A46C05D179974
:1024500090476D1C7F1C4745F6DBE0030CD55B46BF
:102460002146179A059800F09FF9054404E03020B2
:102470005A46179990476D1C0099481E00900029F4
:10248000F5DC08E0029802995A460078491C02914E
:10249000179990476D1CBAF10001AAF1010AF1DC0D
:1024A00065E1000009280100303132333435363718
:1024B0003839616263646566000000003031323390
:1024C0003435363738394142434445460000000030
:1024D00000F058F90544761C307800287FF4ECAD04
:1024E00019B02846BDE8F08F620700D4062709F12D
:1024F000070222F0070CFCE80223E14603F0004843
:102500005FEA080C02D00FF2702C0DE05FEA045C69
:1025100002D50FF2682C07E05FEAC47C02D00FF20C
:10252000602C01E0AFF2700C4FF0FF3823F0004355
:10253000CDF850C065280CD006DC452809D04628C7
:102540001DD047283DD13DE0662818D067287ED1B0
:1025500038E00021112F01DB112000E0781CCDE9CB
:10256000000106A90EA8FFF7DDFCDDE90F010E9AB8
:1025700003910021009207F1010A04914DE04FF010
:1025800000400097CDE9011006A90EA8FFF7CAFC8C
:10259000DDE90F0203920E9B11990022DDF80CA0D9
:1025A0000093049211B9791C00EB010AB7EB0A0001
:1025B00004D4C0F1FF3007F1010A0490AAEB070030
:1025C000019044E0012F00DA01270021112F01DDE5
:1025D000112000E03846CDE9000106A90EA8FFF75A
:1025E000A1FCDDE90F010E9A0391002104910092F4
:1025F000BA4621070CD40399514500DA8A46BAF14C
:10260000010F05DD009AAAF10101515C302908D0C3
:10261000B84202DA10F1040F06DA0121CDE9011007
:1026200015E0AAF10101E9E7002805DC049901445D
:102630000491AAEB000102E0411C514500DD8A46ED
:102640000499401A401C01904FF00040029020076E
:1026500004D40198504501DBCDF8048000208DF8AA
:102660004F0002980DF14F07B0F1004F25D02B20FD
:102670000E9002984FF0020800280CDA40420290B7
:102680002D200E9007E00A210298FDF72EFF303131
:10269000029007F8011DB8F10001A8F10108F2DC71
:1026A00002980028EFD1791E0E980870307800F05B
:1026B000200040F0450007F8020D12A8C01B00F1F1
:1026C00007081498007800B1012000EB0A01019876
:1026D00001EBE07105984144401A401E0590E0036B
:1026E00006D45B462146179A059800F05DF805442C
:1026F0001498007818B15A46179990476D1CE0035A
:1027000024D55B462146179A059800F04DF80544FC
:102710001CE00498002807DBDDE90301884203DDA3
:102720000098405C179901E0179930205A4690476D
:10273000049805F10105401C04900198401E019089
:1027400004D12E205A46179990476D1CBAF100010A
:10275000AAF1010ADDDC05E017F8010B5A461799CA
:1027600090476D1CB8F10001A8F10108F4DC5B464C
:102770002146179A0598ABE62D0000002B000000BB
:10278000200000002DE9F041044600251E461746B2
:10279000880404D405E039462020B0476D1C641E2F
:1027A000F9D52846BDE8F0812DE9F0410446002521
:1027B0001E469046C80301D5302700E02027880434
:1027C00004D505E041463846B0476D1C641EF9D576
:1027D0002846BDE8F0814A68002A06D00A68531CE2
:1027E0000B6010704868401E4860704700B58DB09F
:1027F0000021ADF82C108022ADF82E208DF830107D
:1028000009910A918DF83110DFED091A0691CDED8D
:10281000071ACDED031ACDED041ACDED051A3422B9
:1028200069468DEC030AFDF71CFD0DB000BD0000EC
:10283000000000002DED048B96B09FED4B9ADFED6C
:102840004B8AB7EE088AFEF767F9FFF771F8FEF7D3
:10285000D7FE48484649002401604FF4E131C0E901
:1028600001140C21C460C0E904418461C461FEF715
:1028700003FE404900948C393F48019408600846A3
:10288000FDF7F7FF3B480094002269468C3801941D
:10289000FDF7CEFFFEF7FEFEFEF72AFF35480021CA
:1028A0008C38FEF738F833480C23082200218C3886
:1028B000FEF724F82F4818217838FEF7E9FC2D4858
:1028C00000213C38FEF7C0FDFEF718F90446B0EED3
:1028D000681AF0EE490AB0EE480A09A8FFF786FF29
:1028E000B0EE081ADFED250AB2EE0E0A09A8FEF7CF
:1028F000AFFF322109A8FEF7CFFF0DA924220F4612
:102900006846FDF7AEFC0DF1240C9CE80F00FEF7C5
:10291000FBFF09A8FDF778FF194D4FF47A7600BF49
:10292000FEF7ECF8001BB04205D913986430139001
:10293000FEF7E4F80446686A01B209A8FEF798FFBA
:1029400009A8FEF72FFF242239466846FDF789FCC7
:102950000DF1240C9CE80F00FEF7E0FFBDF85200DB
:10296000FEF702FFDCE70000CDCCCC3DC729BA3D25
:10297000004400409C000020007400400000000063
:102980000000014010B54FF0E02080696421B0FBE9
:10299000F1F0C0F57A74FEF7B1F800EB4001C1EB3D
:1029A000C01004EBC00010BD0000000000000000DB
:1029B00001020304060708090000000001020304E5
:1029C000E02900080000002010000000041F00089B
:1029D000F029000810000020D0020000141F000899
:1029E0000100000010000000000000000024F400BE
:04000005080001C925
:00000001FF
